{
  "contractName": "Waffy",
  "abi": [
    {
      "anonymous": false,
      "inputs": [
        {
          "indexed": false,
          "internalType": "uint256",
          "name": "id",
          "type": "uint256"
        }
      ],
      "name": "Cancelled",
      "type": "event"
    },
    {
      "anonymous": false,
      "inputs": [
        {
          "indexed": false,
          "internalType": "uint256",
          "name": "id",
          "type": "uint256"
        },
        {
          "indexed": true,
          "internalType": "address",
          "name": "sender",
          "type": "address"
        }
      ],
      "name": "Created",
      "type": "event"
    },
    {
      "anonymous": false,
      "inputs": [
        {
          "indexed": false,
          "internalType": "uint256",
          "name": "id",
          "type": "uint256"
        }
      ],
      "name": "Drawn",
      "type": "event"
    },
    {
      "anonymous": false,
      "inputs": [
        {
          "indexed": true,
          "internalType": "address",
          "name": "owner",
          "type": "address"
        },
        {
          "indexed": false,
          "internalType": "bytes32",
          "name": "name",
          "type": "bytes32"
        }
      ],
      "name": "Registered",
      "type": "event"
    },
    {
      "anonymous": false,
      "inputs": [
        {
          "indexed": false,
          "internalType": "uint256",
          "name": "id",
          "type": "uint256"
        },
        {
          "indexed": true,
          "internalType": "address",
          "name": "sender",
          "type": "address"
        }
      ],
      "name": "Repaid",
      "type": "event"
    },
    {
      "anonymous": false,
      "inputs": [
        {
          "indexed": false,
          "internalType": "uint256",
          "name": "id",
          "type": "uint256"
        },
        {
          "indexed": true,
          "internalType": "address",
          "name": "seizer",
          "type": "address"
        }
      ],
      "name": "Seized",
      "type": "event"
    },
    {
      "anonymous": false,
      "inputs": [
        {
          "indexed": false,
          "internalType": "uint256",
          "name": "id",
          "type": "uint256"
        },
        {
          "indexed": true,
          "internalType": "address",
          "name": "sender",
          "type": "address"
        },
        {
          "indexed": false,
          "internalType": "uint256",
          "name": "amount",
          "type": "uint256"
        }
      ],
      "name": "Underwritten",
      "type": "event"
    },
    {
      "inputs": [],
      "name": "totalLoans",
      "outputs": [
        {
          "internalType": "uint256",
          "name": "",
          "type": "uint256"
        }
      ],
      "stateMutability": "view",
      "type": "function",
      "constant": true
    },
    {
      "stateMutability": "payable",
      "type": "receive",
      "payable": true
    },
    {
      "inputs": [
        {
          "internalType": "bytes32",
          "name": "name",
          "type": "bytes32"
        }
      ],
      "name": "register",
      "outputs": [],
      "stateMutability": "nonpayable",
      "type": "function"
    },
    {
      "inputs": [
        {
          "internalType": "uint256",
          "name": "id",
          "type": "uint256"
        },
        {
          "internalType": "address",
          "name": "contractAddress",
          "type": "address"
        },
        {
          "internalType": "uint256",
          "name": "interest",
          "type": "uint256"
        },
        {
          "internalType": "uint256",
          "name": "maxAmount",
          "type": "uint256"
        },
        {
          "internalType": "uint256",
          "name": "endDate",
          "type": "uint256"
        }
      ],
      "name": "createLoan",
      "outputs": [
        {
          "internalType": "uint256",
          "name": "",
          "type": "uint256"
        }
      ],
      "stateMutability": "payable",
      "type": "function",
      "payable": true
    },
    {
      "inputs": [
        {
          "internalType": "uint256",
          "name": "id",
          "type": "uint256"
        },
        {
          "internalType": "uint256",
          "name": "amountToDraw",
          "type": "uint256"
        }
      ],
      "name": "drawLoan",
      "outputs": [],
      "stateMutability": "payable",
      "type": "function",
      "payable": true
    },
    {
      "inputs": [
        {
          "internalType": "uint256",
          "name": "id",
          "type": "uint256"
        }
      ],
      "name": "repayLoan",
      "outputs": [],
      "stateMutability": "payable",
      "type": "function",
      "payable": true
    },
    {
      "inputs": [
        {
          "internalType": "uint256",
          "name": "id",
          "type": "uint256"
        }
      ],
      "name": "cancelLoan",
      "outputs": [],
      "stateMutability": "nonpayable",
      "type": "function"
    },
    {
      "inputs": [
        {
          "internalType": "uint256",
          "name": "id",
          "type": "uint256"
        }
      ],
      "name": "underWriteLoan",
      "outputs": [],
      "stateMutability": "payable",
      "type": "function",
      "payable": true
    },
    {
      "inputs": [
        {
          "internalType": "uint256",
          "name": "id",
          "type": "uint256"
        }
      ],
      "name": "seizeLoan",
      "outputs": [],
      "stateMutability": "payable",
      "type": "function",
      "payable": true
    },
    {
      "inputs": [
        {
          "internalType": "uint256",
          "name": "id",
          "type": "uint256"
        }
      ],
      "name": "getLoan",
      "outputs": [
        {
          "components": [
            {
              "internalType": "uint256",
              "name": "id",
              "type": "uint256"
            },
            {
              "internalType": "uint256",
              "name": "contractId",
              "type": "uint256"
            },
            {
              "internalType": "address",
              "name": "contractAddress",
              "type": "address"
            },
            {
              "internalType": "address",
              "name": "owner",
              "type": "address"
            },
            {
              "internalType": "address",
              "name": "bidder",
              "type": "address"
            },
            {
              "internalType": "uint256",
              "name": "maxAmount",
              "type": "uint256"
            },
            {
              "internalType": "uint256",
              "name": "interest",
              "type": "uint256"
            },
            {
              "internalType": "uint256",
              "name": "bid",
              "type": "uint256"
            },
            {
              "internalType": "uint256",
              "name": "bidDrawn",
              "type": "uint256"
            },
            {
              "internalType": "uint256",
              "name": "startTime",
              "type": "uint256"
            },
            {
              "internalType": "uint256",
              "name": "endTime",
              "type": "uint256"
            },
            {
              "internalType": "uint256",
              "name": "firstBid",
              "type": "uint256"
            },
            {
              "internalType": "uint256",
              "name": "lastBid",
              "type": "uint256"
            },
            {
              "internalType": "uint256",
              "name": "lastInterestPaid",
              "type": "uint256"
            }
          ],
          "internalType": "struct Waffy.Loan",
          "name": "",
          "type": "tuple"
        }
      ],
      "stateMutability": "view",
      "type": "function",
      "constant": true
    },
    {
      "inputs": [
        {
          "internalType": "address",
          "name": "user",
          "type": "address"
        }
      ],
      "name": "getLoans",
      "outputs": [
        {
          "internalType": "uint256[]",
          "name": "",
          "type": "uint256[]"
        }
      ],
      "stateMutability": "view",
      "type": "function",
      "constant": true
    },
    {
      "inputs": [
        {
          "internalType": "uint256",
          "name": "id",
          "type": "uint256"
        }
      ],
      "name": "calInterest",
      "outputs": [
        {
          "internalType": "uint256",
          "name": "",
          "type": "uint256"
        }
      ],
      "stateMutability": "view",
      "type": "function",
      "constant": true
    }
  ],
  "bytecode": "0x608060405234801561001057600080fd5b506001600081905550612d44806100286000396000f3fe6080604052600436106100a05760003560e01c8063ab7b1c8911610064578063ab7b1c8914610191578063bdbfa3de146101ad578063c819422f146101d6578063cc952b57146101f2578063d988ef201461021d578063e1fa8e841461025a576100aa565b80632a2cf98f146100af578063504006ca146100df5780637468ac881461011c578063855dbf59146101385780639c41d41114610154576100aa565b366100aa57600080fd5b600080fd5b6100c960048036038101906100c49190611ec4565b610283565b6040516100d69190611f4e565b60405180910390f35b3480156100eb57600080fd5b5061010660048036038101906101019190611f69565b610616565b60405161011391906120d4565b60405180910390f35b610136600480360381019061013191906120f0565b6107b4565b005b610152600480360381019061014d9190611f69565b610af9565b005b34801561016057600080fd5b5061017b60048036038101906101769190611f69565b610ecb565b6040516101889190611f4e565b60405180910390f35b6101ab60048036038101906101a69190611f69565b6110e8565b005b3480156101b957600080fd5b506101d460048036038101906101cf9190611f69565b6114f3565b005b6101f060048036038101906101eb9190611f69565b61176f565b005b3480156101fe57600080fd5b50610207611982565b6040516102149190611f4e565b60405180910390f35b34801561022957600080fd5b50610244600480360381019061023f9190612130565b611988565b604051610251919061220c565b60405180910390f35b34801561026657600080fd5b50610281600480360381019061027c9190612264565b611a1f565b005b60004282116102c7576040517f08c379a00000000000000000000000000000000000000000000000000000000081526004016102be90612314565b60405180910390fd5b6102d2600354611a70565b6003819055508473ffffffffffffffffffffffffffffffffffffffff166323b872dd3330896040518463ffffffff1660e01b815260040161031593929190612343565b600060405180830381600087803b15801561032f57600080fd5b505af1158015610343573d6000803e3d6000fd5b50505050604051806101c0016040528060035481526020018781526020018673ffffffffffffffffffffffffffffffffffffffff1681526020013373ffffffffffffffffffffffffffffffffffffffff168152602001600073ffffffffffffffffffffffffffffffffffffffff168152602001848152602001858152602001600081526020016000815260200142815260200183815260200160008152602001600081526020016000815250600160006003548152602001908152602001600020600082015181600001556020820151816001015560408201518160020160006101000a81548173ffffffffffffffffffffffffffffffffffffffff021916908373ffffffffffffffffffffffffffffffffffffffff16021790555060608201518160030160006101000a81548173ffffffffffffffffffffffffffffffffffffffff021916908373ffffffffffffffffffffffffffffffffffffffff16021790555060808201518160040160006101000a81548173ffffffffffffffffffffffffffffffffffffffff021916908373ffffffffffffffffffffffffffffffffffffffff16021790555060a0820151816005015560c0820151816006015560e082015181600701556101008201518160080155610120820151816009015561014082015181600a015561016082015181600b015561018082015181600c01556101a082015181600d0155905050600260003373ffffffffffffffffffffffffffffffffffffffff1673ffffffffffffffffffffffffffffffffffffffff16815260200190815260200160002060035490806001815401808255809150506001900390600052602060002001600090919091909150553373ffffffffffffffffffffffffffffffffffffffff167f7757890bcab34d673dfca6b71df1b57f75a2fe4231d6e8de726caf534ab1fdd66003546040516106009190611f4e565b60405180910390a2600354905095945050505050565b61061e611d7a565b60016000838152602001908152602001600020604051806101c001604052908160008201548152602001600182015481526020016002820160009054906101000a900473ffffffffffffffffffffffffffffffffffffffff1673ffffffffffffffffffffffffffffffffffffffff1673ffffffffffffffffffffffffffffffffffffffff1681526020016003820160009054906101000a900473ffffffffffffffffffffffffffffffffffffffff1673ffffffffffffffffffffffffffffffffffffffff1673ffffffffffffffffffffffffffffffffffffffff1681526020016004820160009054906101000a900473ffffffffffffffffffffffffffffffffffffffff1673ffffffffffffffffffffffffffffffffffffffff1673ffffffffffffffffffffffffffffffffffffffff1681526020016005820154815260200160068201548152602001600782015481526020016008820154815260200160098201548152602001600a8201548152602001600b8201548152602001600c8201548152602001600d820154815250509050919050565b60006001600084815260200190815260200160002090503373ffffffffffffffffffffffffffffffffffffffff168160030160009054906101000a900473ffffffffffffffffffffffffffffffffffffffff1673ffffffffffffffffffffffffffffffffffffffff161461085d576040517f08c379a0000000000000000000000000000000000000000000000000000000008152600401610854906123c6565b60405180910390fd5b60008160000154036108a4576040517f08c379a000000000000000000000000000000000000000000000000000000000815260040161089b90612432565b60405180910390fd5b60008160070154036108eb576040517f08c379a00000000000000000000000000000000000000000000000000000000081526004016108e29061249e565b60405180910390fd5b8060070154816008015410610935576040517f08c379a000000000000000000000000000000000000000000000000000000000815260040161092c9061250a565b60405180910390fd5b4281600a01541161097b576040517f08c379a000000000000000000000000000000000000000000000000000000000815260040161097290612576565b60405180910390fd5b806007015482826008015461099091906125c5565b11156109d1576040517f08c379a00000000000000000000000000000000000000000000000000000000081526004016109c890612667565b60405180910390fd5b818160080160008282546109e591906125c5565b9250508190555060008160030160009054906101000a900473ffffffffffffffffffffffffffffffffffffffff1673ffffffffffffffffffffffffffffffffffffffff1683604051610a36906126b8565b60006040518083038185875af1925050503d8060008114610a73576040519150601f19603f3d011682016040523d82523d6000602084013e610a78565b606091505b5050905080610abc576040517f08c379a0000000000000000000000000000000000000000000000000000000008152600401610ab390612719565b60405180910390fd5b7f2429a36d5697dc0ddf54bf2c5aa2b4e956614b9d91a88919e9ebd9a0e2bea56d84604051610aeb9190611f4e565b60405180910390a150505050565b600260005403610b3e576040517f08c379a0000000000000000000000000000000000000000000000000000000008152600401610b3590612785565b60405180910390fd5b600260008190555060006001600083815260200190815260200160002090506000816000015403610ba4576040517f08c379a0000000000000000000000000000000000000000000000000000000008152600401610b9b90612432565b60405180910390fd5b4281600a015411610bea576040517f08c379a0000000000000000000000000000000000000000000000000000000008152600401610be1906127f1565b60405180910390fd5b6000816007015403610c54578060050154341115610c3d576040517f08c379a0000000000000000000000000000000000000000000000000000000008152600401610c349061285d565b60405180910390fd5b3481600701819055504281600b0181905550610e23565b6000610c5f83610ecb565b905060008260080154828460070154610c7891906125c5565b610c82919061287d565b905080341015610cc7576040517f08c379a0000000000000000000000000000000000000000000000000000000008152600401610cbe906128fd565b60405180910390fd5b818360050154610cd791906125c5565b341115610d19576040517f08c379a0000000000000000000000000000000000000000000000000000000008152600401610d109061285d565b60405180910390fd5b60008360040160009054906101000a900473ffffffffffffffffffffffffffffffffffffffff1673ffffffffffffffffffffffffffffffffffffffff1682604051610d63906126b8565b60006040518083038185875af1925050503d8060008114610da0576040519150601f19603f3d011682016040523d82523d6000602084013e610da5565b606091505b505090506001151581151514610df0576040517f08c379a0000000000000000000000000000000000000000000000000000000008152600401610de790612969565b60405180910390fd5b8234610dfc919061287d565b84600701819055508284600d016000828254610e1891906125c5565b925050819055505050505b338160040160006101000a81548173ffffffffffffffffffffffffffffffffffffffff021916908373ffffffffffffffffffffffffffffffffffffffff1602179055504281600c01819055503373ffffffffffffffffffffffffffffffffffffffff167fb9254ba92cadc6dd3d4644d03707ec3b908d1f3465c83461f5be7daddaad12ba8334604051610eb7929190612989565b60405180910390a250600160008190555050565b60008060016000848152602001908152602001600020604051806101c001604052908160008201548152602001600182015481526020016002820160009054906101000a900473ffffffffffffffffffffffffffffffffffffffff1673ffffffffffffffffffffffffffffffffffffffff1673ffffffffffffffffffffffffffffffffffffffff1681526020016003820160009054906101000a900473ffffffffffffffffffffffffffffffffffffffff1673ffffffffffffffffffffffffffffffffffffffff1673ffffffffffffffffffffffffffffffffffffffff1681526020016004820160009054906101000a900473ffffffffffffffffffffffffffffffffffffffff1673ffffffffffffffffffffffffffffffffffffffff1673ffffffffffffffffffffffffffffffffffffffff1681526020016005820154815260200160068201548152602001600782015481526020016008820154815260200160098201548152602001600a8201548152602001600b8201548152602001600c8201548152602001600d820154815250509050600081610180015142611072919061287d565b9050600082610160015183610140015161108c919061287d565b9050600061109a8383611a7d565b905060006110ad8560c001516064611a7d565b905060006110bf828760e00151611ae4565b90506110cb8382611ae4565b866101a001516110db91906125c5565b9650505050505050919050565b60026000540361112d576040517f08c379a000000000000000000000000000000000000000000000000000000000815260040161112490612785565b60405180910390fd5b600260008190555060006001600083815260200190815260200160002090506000816000015403611193576040517f08c379a000000000000000000000000000000000000000000000000000000000815260040161118a90612432565b60405180910390fd5b60008160070154036111da576040517f08c379a00000000000000000000000000000000000000000000000000000000081526004016111d19061249e565b60405180910390fd5b8060030160009054906101000a900473ffffffffffffffffffffffffffffffffffffffff1673ffffffffffffffffffffffffffffffffffffffff163373ffffffffffffffffffffffffffffffffffffffff160361127d574281600a01541115611278576040517f08c379a000000000000000000000000000000000000000000000000000000000815260040161126f906129fe565b60405180910390fd5b6112d1565b42610e1082600a015461129091906125c5565b106112d0576040517f08c379a00000000000000000000000000000000000000000000000000000000081526004016112c790612a90565b60405180910390fd5b5b60006112dc83610ecb565b82600801546112eb91906125c5565b905080341015611330576040517f08c379a0000000000000000000000000000000000000000000000000000000008152600401611327906128fd565b60405180910390fd5b60008260040160009054906101000a900473ffffffffffffffffffffffffffffffffffffffff1673ffffffffffffffffffffffffffffffffffffffff168260405161137a906126b8565b60006040518083038185875af1925050503d80600081146113b7576040519150601f19603f3d011682016040523d82523d6000602084013e6113bc565b606091505b5050905080611400576040517f08c379a00000000000000000000000000000000000000000000000000000000081526004016113f790612afc565b60405180910390fd5b8260020160009054906101000a900473ffffffffffffffffffffffffffffffffffffffff1673ffffffffffffffffffffffffffffffffffffffff166323b872dd303386600101546040518463ffffffff1660e01b815260040161146593929190612343565b600060405180830381600087803b15801561147f57600080fd5b505af1158015611493573d6000803e3d6000fd5b505050503373ffffffffffffffffffffffffffffffffffffffff167f2193d5fd48f215b92e2de47309d456b760c6387645c71ae0469b7381c0b9ff3c856040516114dd9190611f4e565b60405180910390a2505050600160008190555050565b60006001600083815260200190815260200160002090506000816000015403611551576040517f08c379a000000000000000000000000000000000000000000000000000000000815260040161154890612432565b60405180910390fd5b3373ffffffffffffffffffffffffffffffffffffffff168160030160009054906101000a900473ffffffffffffffffffffffffffffffffffffffff1673ffffffffffffffffffffffffffffffffffffffff16146115e3576040517f08c379a00000000000000000000000000000000000000000000000000000000081526004016115da90612b68565b60405180910390fd5b600081600701541461162a576040517f08c379a000000000000000000000000000000000000000000000000000000000815260040161162190612bd4565b60405180910390fd5b4281600a015411611670576040517f08c379a0000000000000000000000000000000000000000000000000000000008152600401611667906127f1565b60405180910390fd5b8060020160009054906101000a900473ffffffffffffffffffffffffffffffffffffffff1673ffffffffffffffffffffffffffffffffffffffff166323b872dd308360030160009054906101000a900473ffffffffffffffffffffffffffffffffffffffff1684600101546040518463ffffffff1660e01b81526004016116f993929190612343565b600060405180830381600087803b15801561171357600080fd5b505af1158015611727573d6000803e3d6000fd5b505050504281600a01819055507fc41d93b8bfbf9fd7cf5bfe271fd649ab6a6fec0ea101c23b82a2a28eca2533a9826040516117639190611f4e565b60405180910390a15050565b6002600054036117b4576040517f08c379a00000000000000000000000000000000000000000000000000000000081526004016117ab90612785565b60405180910390fd5b60026000819055506000600160008381526020019081526020016000209050600081600001540361181a576040517f08c379a000000000000000000000000000000000000000000000000000000000815260040161181190612432565b60405180910390fd5b42610e1082600a015461182d91906125c5565b1061186d576040517f08c379a000000000000000000000000000000000000000000000000000000000815260040161186490612c66565b60405180910390fd5b8060020160009054906101000a900473ffffffffffffffffffffffffffffffffffffffff1673ffffffffffffffffffffffffffffffffffffffff166323b872dd308360040160009054906101000a900473ffffffffffffffffffffffffffffffffffffffff1684600101546040518463ffffffff1660e01b81526004016118f693929190612343565b600060405180830381600087803b15801561191057600080fd5b505af1158015611924573d6000803e3d6000fd5b505050503373ffffffffffffffffffffffffffffffffffffffff167f9d3eb462b228558b8acd346315d1e9d51fca0fdef34bab00a2f86b5ab68685488360405161196e9190611f4e565b60405180910390a250600160008190555050565b60035481565b6060600260008373ffffffffffffffffffffffffffffffffffffffff1673ffffffffffffffffffffffffffffffffffffffff168152602001908152602001600020805480602002602001604051908101604052809291908181526020018280548015611a1357602002820191906000526020600020905b8154815260200190600101908083116119ff575b50505050509050919050565b3373ffffffffffffffffffffffffffffffffffffffff167fb8142d42f05d95abf0a6570799774d59276e49ea32a04d9a4ec316ea4a6886bc82604051611a659190612c95565b60405180910390a250565b6000600182019050919050565b6000808203611a8b57600080fd5b6000611a978484611b9e565b90506f7fffffffffffffffffffffffffffffff6fffffffffffffffffffffffffffffffff16816fffffffffffffffffffffffffffffffff161115611ada57600080fd5b8091505092915050565b6000808203611af65760009050611b98565b600083600f0b1215611b0757600080fd5b600060406fffffffffffffffffffffffffffffffff841685600f0b02901c90506000608084901c85600f0b02905077ffffffffffffffffffffffffffffffffffffffffffffffff811115611b5a57600080fd5b604081901b9050817fffffffffffffffffffffffffffffffffffffffffffffffffffffffffffffffff03811115611b9057600080fd5b818101925050505b92915050565b6000808203611bac57600080fd5b600077ffffffffffffffffffffffffffffffffffffffffffffffff8411611be95782604085901b81611be157611be0612cb0565b5b049050611d53565b600060c09050600060c086901c90506401000000008110611c1257602081901c90506020820191505b620100008110611c2a57601081901c90506010820191505b6101008110611c4157600881901c90506008820191505b60108110611c5757600481901c90506004820191505b60048110611c6d57600281901c90506002820191505b60028110611c7c576001820191505b600160bf830360018703901c018260ff0387901b81611c9e57611c9d612cb0565b5b0492506fffffffffffffffffffffffffffffffff831115611cbe57600080fd5b6000608086901c8402905060006fffffffffffffffffffffffffffffffff871685029050600060c089901c9050600060408a901b905082811015611d03576001820391505b8281039050608084901b925082811015611d1e576001820391505b8281039050608084901c8214611d3757611d36612cdf565b5b888181611d4757611d46612cb0565b5b04870196505050505050505b6fffffffffffffffffffffffffffffffff811115611d7057600080fd5b8091505092915050565b604051806101c001604052806000815260200160008152602001600073ffffffffffffffffffffffffffffffffffffffff168152602001600073ffffffffffffffffffffffffffffffffffffffff168152602001600073ffffffffffffffffffffffffffffffffffffffff1681526020016000815260200160008152602001600081526020016000815260200160008152602001600081526020016000815260200160008152602001600081525090565b600080fd5b6000819050919050565b611e4381611e30565b8114611e4e57600080fd5b50565b600081359050611e6081611e3a565b92915050565b600073ffffffffffffffffffffffffffffffffffffffff82169050919050565b6000611e9182611e66565b9050919050565b611ea181611e86565b8114611eac57600080fd5b50565b600081359050611ebe81611e98565b92915050565b600080600080600060a08688031215611ee057611edf611e2b565b5b6000611eee88828901611e51565b9550506020611eff88828901611eaf565b9450506040611f1088828901611e51565b9350506060611f2188828901611e51565b9250506080611f3288828901611e51565b9150509295509295909350565b611f4881611e30565b82525050565b6000602082019050611f636000830184611f3f565b92915050565b600060208284031215611f7f57611f7e611e2b565b5b6000611f8d84828501611e51565b91505092915050565b611f9f81611e30565b82525050565b611fae81611e86565b82525050565b6101c082016000820151611fcb6000850182611f96565b506020820151611fde6020850182611f96565b506040820151611ff16040850182611fa5565b5060608201516120046060850182611fa5565b5060808201516120176080850182611fa5565b5060a082015161202a60a0850182611f96565b5060c082015161203d60c0850182611f96565b5060e082015161205060e0850182611f96565b50610100820151612065610100850182611f96565b5061012082015161207a610120850182611f96565b5061014082015161208f610140850182611f96565b506101608201516120a4610160850182611f96565b506101808201516120b9610180850182611f96565b506101a08201516120ce6101a0850182611f96565b50505050565b60006101c0820190506120ea6000830184611fb4565b92915050565b6000806040838503121561210757612106611e2b565b5b600061211585828601611e51565b925050602061212685828601611e51565b9150509250929050565b60006020828403121561214657612145611e2b565b5b600061215484828501611eaf565b91505092915050565b600081519050919050565b600082825260208201905092915050565b6000819050602082019050919050565b60006121958383611f96565b60208301905092915050565b6000602082019050919050565b60006121b98261215d565b6121c38185612168565b93506121ce83612179565b8060005b838110156121ff5781516121e68882612189565b97506121f1836121a1565b9250506001810190506121d2565b5085935050505092915050565b6000602082019050818103600083015261222681846121ae565b905092915050565b6000819050919050565b6122418161222e565b811461224c57600080fd5b50565b60008135905061225e81612238565b92915050565b60006020828403121561227a57612279611e2b565b5b60006122888482850161224f565b91505092915050565b600082825260208201905092915050565b7f4c6f616e20656e642064617465206d75737420626520696e207468652066757460008201527f7572650000000000000000000000000000000000000000000000000000000000602082015250565b60006122fe602383612291565b9150612309826122a2565b604082019050919050565b6000602082019050818103600083015261232d816122f1565b9050919050565b61233d81611e86565b82525050565b60006060820190506123586000830186612334565b6123656020830185612334565b6123726040830184611f3f565b949350505050565b7f4f6e6c7920746865206f776e65722063616e206472617720746865206c6f616e600082015250565b60006123b0602083612291565b91506123bb8261237a565b602082019050919050565b600060208201905081810360008301526123df816123a3565b9050919050565b7f4c6f616e20646f6573206e6f7420657869737400000000000000000000000000600082015250565b600061241c601383612291565b9150612427826123e6565b602082019050919050565b6000602082019050818103600083015261244b8161240f565b9050919050565b7f4c6f616e20686173206e6f206269647300000000000000000000000000000000600082015250565b6000612488601083612291565b915061249382612452565b602082019050919050565b600060208201905081810360008301526124b78161247b565b9050919050565b7f4c6f616e2068617320616c7265616479206265656e20647261776e0000000000600082015250565b60006124f4601b83612291565b91506124ff826124be565b602082019050919050565b60006020820190508181036000830152612523816124e7565b9050919050565b7f4c6f616e2068617320616c726561647920656e64656400000000000000000000600082015250565b6000612560601683612291565b915061256b8261252a565b602082019050919050565b6000602082019050818103600083015261258f81612553565b9050919050565b7f4e487b7100000000000000000000000000000000000000000000000000000000600052601160045260246000fd5b60006125d082611e30565b91506125db83611e30565b9250827fffffffffffffffffffffffffffffffffffffffffffffffffffffffffffffffff038211156126105761260f612596565b5b828201905092915050565b7f45786365656473206d617820616d6f756e740000000000000000000000000000600082015250565b6000612651601283612291565b915061265c8261261b565b602082019050919050565b6000602082019050818103600083015261268081612644565b9050919050565b600081905092915050565b50565b60006126a2600083612687565b91506126ad82612692565b600082019050919050565b60006126c382612695565b9150819050919050565b7f4661696c656420746f2064726177000000000000000000000000000000000000600082015250565b6000612703600e83612291565b915061270e826126cd565b602082019050919050565b60006020820190508181036000830152612732816126f6565b9050919050565b7f5265656e7472616e637947756172643a207265656e7472616e742063616c6c00600082015250565b600061276f601f83612291565b915061277a82612739565b602082019050919050565b6000602082019050818103600083015261279e81612762565b9050919050565b7f4c6f616e20697320616c72656164792065787069726564000000000000000000600082015250565b60006127db601783612291565b91506127e6826127a5565b602082019050919050565b6000602082019050818103600083015261280a816127ce565b9050919050565b7f4578636573736976652066756e64730000000000000000000000000000000000600082015250565b6000612847600f83612291565b915061285282612811565b602082019050919050565b600060208201905081810360008301526128768161283a565b9050919050565b600061288882611e30565b915061289383611e30565b9250828210156128a6576128a5612596565b5b828203905092915050565b7f496e73756666696369656e742066756e64730000000000000000000000000000600082015250565b60006128e7601283612291565b91506128f2826128b1565b602082019050919050565b60006020820190508181036000830152612916816128da565b9050919050565b7f4661696c656420746f20756e6465727772697465000000000000000000000000600082015250565b6000612953601483612291565b915061295e8261291d565b602082019050919050565b6000602082019050818103600083015261298281612946565b9050919050565b600060408201905061299e6000830185611f3f565b6129ab6020830184611f3f565b9392505050565b7f4c6f616e2069736e277420657870697265642079657400000000000000000000600082015250565b60006129e8601683612291565b91506129f3826129b2565b602082019050919050565b60006020820190508181036000830152612a17816129db565b9050919050565b7f5761697420666f72203120686f7572206f6620677261636520706572696f642060008201527f6265666f7265207265706179696e672061206c6f616e00000000000000000000602082015250565b6000612a7a603683612291565b9150612a8582612a1e565b604082019050919050565b60006020820190508181036000830152612aa981612a6d565b9050919050565b7f4661696c656420746f2072657061790000000000000000000000000000000000600082015250565b6000612ae6600f83612291565b9150612af182612ab0565b602082019050919050565b60006020820190508181036000830152612b1581612ad9565b9050919050565b7f596f7520617265206e6f7420746865206f776e65720000000000000000000000600082015250565b6000612b52601583612291565b9150612b5d82612b1c565b602082019050919050565b60006020820190508181036000830152612b8181612b45565b9050919050565b7f4c6f616e20686173206269647300000000000000000000000000000000000000600082015250565b6000612bbe600d83612291565b9150612bc982612b88565b602082019050919050565b60006020820190508181036000830152612bed81612bb1565b9050919050565b7f5761697420666f72203120686f7572206f6620677261636520706572696f642060008201527f6265666f7265207365697a696e672061206c6f616e0000000000000000000000602082015250565b6000612c50603583612291565b9150612c5b82612bf4565b604082019050919050565b60006020820190508181036000830152612c7f81612c43565b9050919050565b612c8f8161222e565b82525050565b6000602082019050612caa6000830184612c86565b92915050565b7f4e487b7100000000000000000000000000000000000000000000000000000000600052601260045260246000fd5b7f4e487b7100000000000000000000000000000000000000000000000000000000600052600160045260246000fdfea26469706673582212206ed172fceb11eac78bdfb7bddaa1ee92965aff9415f552fe4df2c605b1bdf5c864736f6c634300080f0033",
  "immutableReferences": {},
  "source": "// SPDX-License-Identifier: MIT\npragma solidity ^0.8.0;\n\nimport \"./IWaffy.sol\";\nimport \"abdk-libraries-solidity/ABDKMath64x64.sol\";\nimport \"@openzeppelin/contracts/token/ERC721/IERC721.sol\";\nimport \"@openzeppelin/contracts/security/ReentrancyGuard.sol\";\n\ncontract Waffy is IWaffy, ReentrancyGuard{\n\n    struct Loan {\n        uint256 id;\n        uint256 contractId;\n        address contractAddress;\n        address owner;\n        address bidder;\n        uint256 maxAmount;\n        uint256 interest;\n        uint256 bid;\n        uint256 bidDrawn;\n        uint256 startTime;\n        uint256 endTime;\n        uint256 firstBid;\n        uint256 lastBid;\n        uint256 lastInterestPaid;\n    }\n\n    // Mapping of loan ids to loan\n    mapping(uint256 => Loan) internal loans;\n\n    // Mapping of loaned NFT owners to array of loan ids\n    mapping(address => uint256[]) internal loanedNFTs;\n\n    // Total number of loans\n    uint256 public totalLoans;\n    \n\n    /**\n     * @dev Register a user with the contract.\n     */\n    function register(bytes32 name) public {\n        emit Registered(msg.sender, name);\n    }\n\n    /**\n     * @dev See {IWaffy-createLoan}.\n     */\n    function createLoan(uint256 id, address contractAddress, uint256 interest, uint256 maxAmount, uint256 endDate) external payable virtual override returns (uint256){\n\n        require(endDate > block.timestamp, \"Loan end date must be in the future\");\n\n        totalLoans = unsafe_inc(totalLoans);\n\n        IERC721(contractAddress).transferFrom(msg.sender, address(this), id);\n\n        loans[totalLoans] = Loan({\n            id: totalLoans,\n            contractId: id,\n            contractAddress: contractAddress,\n            owner: msg.sender,\n            bidder: address(0),\n            maxAmount: maxAmount,\n            interest: interest,\n            bid: 0,\n            bidDrawn: 0,\n            startTime: block.timestamp,\n            endTime: endDate,\n            firstBid: 0,\n            lastBid: 0,\n            lastInterestPaid: 0\n        });\n\n        loanedNFTs[msg.sender].push(totalLoans);\n\n        emit Created(totalLoans, msg.sender);\n\n        return totalLoans;\n    }\n\n\n    /**\n     * @dev See {IWaffy-drawLoan}.\n     */\n    function drawLoan(uint256 id, uint256 amountToDraw) external override payable{\n        Loan storage loan = loans[id];\n\n        require(loan.owner == msg.sender, \"Only the owner can draw the loan\");\n        require(loan.id != 0, \"Loan does not exist\");\n        require(loan.bid != 0, \"Loan has no bids\");\n        require(loan.bidDrawn < loan.bid, \"Loan has already been drawn\");\n        require(loan.endTime > block.timestamp, \"Loan has already ended\");\n\n        require(loan.bidDrawn + amountToDraw <= loan.bid, \"Exceeds max amount\");\n\n        loan.bidDrawn += amountToDraw;\n\n        (bool sent, ) = payable(loan.owner).call{value: amountToDraw}(\"\");\n        require(sent, \"Failed to draw\");\n\n        emit Drawn(id);\n    }\n\n\n    /**\n     * @dev See {IWaffy-repayLoan}.\n     */\n    function repayLoan(uint256 id) external nonReentrant override payable{\n        Loan storage loan = loans[id];\n\n        require(loan.id != 0, \"Loan does not exist\");\n        require(loan.bid != 0, \"Loan has no bids\");\n\n        if(msg.sender == loan.owner){\n            require(loan.endTime <= block.timestamp, \"Loan isn't expired yet\");\n        }\n        else{\n            require(loan.endTime + 3600 < block.timestamp, \"Wait for 1 hour of grace period before repaying a loan\");\n        }\n\n        uint256 totalAmount = loan.bidDrawn + calInterest(id);\n\n        require(msg.value >= totalAmount, \"Insufficient funds\");\n\n        (bool sent,) = payable(loan.bidder).call{value: totalAmount}(\"\");\n        require(sent, \"Failed to repay\");\n\n        IERC721(loan.contractAddress).transferFrom(address(this), msg.sender, loan.contractId);\n\n        emit Repaid(id, msg.sender);\n    }\n\n\n    /**\n     * @dev See {IWaffy-cancelLoan}.\n     */\n    function cancelLoan(uint256 id) external override{\n        Loan storage loan = loans[id];\n\n        require(loan.id != 0, \"Loan does not exist\");\n        require(loan.owner == msg.sender, \"You are not the owner\");\n        require(loan.bid == 0, \"Loan has bids\");\n        require(loan.endTime > block.timestamp, \"Loan is already expired\");\n\n        IERC721(loan.contractAddress).transferFrom(address(this), loan.owner, loan.contractId);\n\n        loan.endTime = block.timestamp;\n\n        emit Cancelled(id);\n    }\n\n\n    /**\n     * @dev See {IWaffy-underWriteLoan}.\n     */\n    function underWriteLoan(uint256 id) external nonReentrant override payable{\n        Loan storage loan = loans[id];\n\n        require(loan.id != 0, \"Loan does not exist\");\n        require(loan.endTime > block.timestamp, \"Loan is already expired\");\n\n        if(loan.bid == 0){\n            require(msg.value <= loan.maxAmount, \"Excessive funds\");\n            loan.bid = msg.value;\n            loan.firstBid = block.timestamp;\n        }\n        else{\n            uint256 totalInterest = calInterest(id);\n            uint256 totalAmount = loan.bid + totalInterest - loan.bidDrawn;\n\n            require(msg.value >= totalAmount, \"Insufficient funds\");\n            require(msg.value <= loan.maxAmount + totalInterest, \"Excessive funds\");\n\n            (bool sent, ) = payable(loan.bidder).call{value: totalAmount}(\"\");\n            require(sent == true, \"Failed to underwrite\");\n\n            loan.bid = msg.value - totalInterest;\n            loan.lastInterestPaid += totalInterest;\n        }\n\n        loan.bidder = msg.sender;\n        loan.lastBid = block.timestamp;\n\n        emit Underwritten(id, msg.sender, msg.value);\n    }\n\n\n    /**\n     * @dev See {IWaffy-seizeLoan}.\n     */\n    function seizeLoan(uint256 id) external nonReentrant override payable{\n        Loan storage loan = loans[id];\n\n        require(loan.id != 0, \"Loan does not exist\");\n        require(loan.endTime + 3600 < block.timestamp, \"Wait for 1 hour of grace period before seizing a loan\");\n\n        IERC721(loan.contractAddress).transferFrom(address(this), loan.bidder, loan.contractId);\n\n        // (bool sent,) = payable(msg.sender).call{value: totalAmount}(\"\");\n        // require(sent, \"Failed to reward the seizer\");\n\n        emit Seized(id, msg.sender);\n    }\n\n\n    /**\n     * @dev Function to get details about a specific loan.\n     */\n    function getLoan(uint256 id) public view returns (Loan memory){\n        return loans[id];\n    }\n\n\n    /**\n     * @dev Function to get details about a specific loan.\n     */\n    function getLoans(address user) public view returns (uint256[] memory){\n        return loanedNFTs[user];\n    }\n\n\n    /**\n     * @dev Function to calculate Interest on a loan\n     */\n    function calInterest(uint256 id) public view returns (uint256){\n        Loan memory loan = loans[id];\n\n        uint256 durationLastBid = block.timestamp - loan.lastBid;\n        uint256 durationFirstBid = loan.endTime - loan.firstBid;\n\n        int128 duration = ABDKMath64x64.divu(durationLastBid, durationFirstBid);\n\n        int128 interestRate = ABDKMath64x64.divu(loan.interest, 100);\n        uint256 totalInterest = ABDKMath64x64.mulu(interestRate, loan.bid);\n\n        return loan.lastInterestPaid + ABDKMath64x64.mulu(duration, totalInterest);\n    }\n\n    receive() external payable {\n        revert();\n    }\n\n\n    /**\n     * Library Functions\n     */\n\n    function unsafe_inc(uint256 x) private pure returns (uint256) {\n        unchecked { return x + 1; }\n    }\n}\n",
  "sourcePath": "/Users/rahulbansal/Desktop/Waffy/frontend/contracts/Waffy.sol",
  "compiler": {
    "name": "solc",
    "version": "0.8.15+commit.e14f2714.Emscripten.clang"
  },
  "schemaVersion": "3.4.6",
  "updatedAt": "2022-07-23T19:49:07.675Z",
  "networkType": "ethereum",
  "devdoc": {
    "kind": "dev",
    "methods": {
      "calInterest(uint256)": {
        "details": "Function to calculate Interest on a loan"
      },
      "cancelLoan(uint256)": {
        "details": "See {IWaffy-cancelLoan}."
      },
      "createLoan(uint256,address,uint256,uint256,uint256)": {
        "details": "See {IWaffy-createLoan}."
      },
      "drawLoan(uint256,uint256)": {
        "details": "See {IWaffy-drawLoan}."
      },
      "getLoan(uint256)": {
        "details": "Function to get details about a specific loan."
      },
      "getLoans(address)": {
        "details": "Function to get details about a specific loan."
      },
      "register(bytes32)": {
        "details": "Register a user with the contract."
      },
      "repayLoan(uint256)": {
        "details": "See {IWaffy-repayLoan}."
      },
      "seizeLoan(uint256)": {
        "details": "See {IWaffy-seizeLoan}."
      },
      "underWriteLoan(uint256)": {
        "details": "See {IWaffy-underWriteLoan}."
      }
    },
    "version": 1
  },
  "userdoc": {
    "kind": "user",
    "methods": {},
    "version": 1
  }
}